:1000000019C063C162C161C160C15FC15EC15DC130
:100010005CC15BC15AC159C158C157C156C155C114
:1000200054C153C152C151C150C14FC14EC14DC144
:100030004CC14BC111241FBECFEFD2E0DEBFCDBFFC
:08004000CFD03CC1F894FFCFC2
:070048006F6B0A00200A00A3
:100050008F929F92AF92BF92CF92DF92EF92FF92D8
:100060000F931F938B019C01672B682B692BA9F1C0
:1000700060E070E0CB010F2EFAE08F2E912CA12CC6
:10008000B12CF02DDC01CB01880F991FAA1FBB1FDB
:100090006C017D01CC0CDD1CEE1CFF1CCC0CDD1CAE
:1000A000EE1CFF1CC80ED91EEA1EFB1EC901B801BA
:1000B000A501940173D06C0D7D1D8E1D9F1D022F17
:1000C000132F242F352F0115110521053105D1F6E8
:1000D000611571058105910519F480E3E7D01AC017
:1000E0000F2EFAE08F2E912CA12CB12CF02DA50112
:1000F000940154D0E22EF32E042F152F80E3860FA7
:10010000D5D06E2D7F2D802F912F61157105810522
:10011000910569F71F910F91FF90EF90DF90CF90BD
:0A012000BF90AF909F908F9008955C
:10012A000F931F938B019C01442399F0E0ECF0E0BC
:10013A0080818260808360E874E88EE190E0A901A2
:10014A00980127D0215031093093C5002093C4006B
:10015A000DC060E472E48FE090E0A901980119D023
:10016A00215031093093C5002093C400E1ECF0E03E
:10017A00808180618083808188608083E2ECF0E006
:10018A008081826080838081846080831F910F9147
:02019A000895C6
:10019C00A1E21A2EAA1BBB1BFD010DC0AA1FBB1F7F
:1001AC00EE1FFF1FA217B307E407F50720F0A21BF1
:1001BC00B30BE40BF50B661F771F881F991F1A945E
:1001CC0069F760957095809590959B01AC01BD0188
:0401DC00CF010895B2
:1001E00054D041E060E07BE480E090E09EDF68E492
:1001F00070E080E030D080E012D0BC0180E090E080
:1002000027DF6CE470E080E026D02FEF83EC99E0EC
:0E021000215080409040E1F700C00000ECCF8C
:10021E00ECE7F0E09081907F90839081892B808332
:10022E00EAE7F0E0808180648083808184FFFDCFE7
:10023E00EAE7F0E0808180618083809178002091F0
:08024E00790090E0922B089565
:10025600CF92DF92EF926B01E82EFB018491E7FCCF
:100266008081882359F01FD08FEFC81AD80AE80A70
:10027600F6018491E7FC80818111F5CFEF90DF9044
:04028600CF90089578
:10028A00ECE7F0E0808180648083EAE7F0E0808137
:10029A00806880838081846080838081826080839B
:0202AA000895B5
:1002AC00E0ECF0E0908195FFFDCF8093C6000895BF
:0E02BC00EC0107D005D0CE0105D0CE0104D054
:0202CA009ACECA
:0202CC00089593
:0202CE00089591
:0202D00008958F
:0202D200B8DE94
:00000001FF
