:1000000019C03BC04EC04DC04CC04BC04AC049C0D7
:1000100048C047C046C045C044C043C042C041C0BC
:1000200040C03FC03EC03DC03CC03BC03AC039C0EC
:1000300038C037C011241FBECFEFD2E0DEBFCDBF26
:0800400003D028C0F894FFCFA3
:10004800E9E6F0E0808182608083E89A7894209ADB
:10005800219A52985A9A91E085B1892785B92FEF4C
:1000680035EA8EE0215030408040E1F700C00000C2
:02007800F3CFC4
:10007A008F938FB78F939F9395B182E0892785B924
:0A008A009F918F918FBF8F91189501
:0E009400EC0107D005D0CE0105D0CE0104D07E
:0200A200AECFDF
:0200A4000895BD
:0200A6000895BB
:0200A8000895B9
:0200AA00CCDFA9
:00000001FF
