:1000000019C045C044C043C042C041C040C03FC009
:100010003EC03DC03CC03BC03AC039C038C037C00C
:1000200036C035C034C033C032C031C030C02FC03C
:100030002EC02DC011241FBECFEFD2E0DEBFCDBF3A
:0800400003D01EC0F894FFCFAD
:1000480010928000E1E8F0E08081826080838FEA8E
:100058009CE39093850080938400259AE4E8F0E07F
:100068002FEA3CE390E2B09BFECF3183208385B139
:08007800892785B9B09AF7CF82
:0E008000EC0107D005D0CE0105D0CE0104D092
:02008E00B8CFE9
:020090000895D1
:020092000895CF
:020094000895CD
:02009600D6DFB3
:00000001FF
