:1000000019C0DBC0DAC0D9C0D8C0D7C0D6C0D5C0EF
:10001000D4C0D3C0D2C0D1C0D0C0CFC0CEC0CDC05C
:10002000CCC0CBC0CAC0C9C0C8C0C7C0C6C0C5C08C
:10003000C4C0C3C011241FBECFEFD2E0DEBFCDBF0E
:0800400065D0B4C0F894FFCFB5
:100048000F931F93CF938B019C01C42F403431F43D
:10005800E9EBF0E080818360808315C0403131F4A2
:10006800E9EBF0E08081826080830DC0443031F498
:10007800E9EBF0E080818160808305C0E9EBF0E086
:1000880080818C7F808360E072E18AE790E0A9013B
:10009800980116D0CA01B901605171098109910905
:1000A8004C2F50E09A01220F331F032E000C440BF3
:1000B800550B06D02093B800CF911F910F9108954A
:1000C800A1E21A2EAA1BBB1BFD010DC0AA1FBB1F54
:1000D800EE1FFF1FA217B307E407F50720F0A21BC6
:1000E800B30BE40BF50B661F771F881F991F1A9433
:1000F80069F760957095809590959B01AC01BD015D
:04010800CF01089586
:10010C00389A44E060E573EC80E090E097DF2FEFE5
:10011C0084E39CE0215080409040E1F700C0000057
:10012C0007D087E218D080E029D08FEF27D0FBCF03
:10013C00ECEBF0E08081846A808380818F7D80830A
:10014C0080818823ECF79091B900987F81E09830FA
:06015C0009F080E00895A7
:10016200880F8093BB00ECEBF0E080818068808395
:1001720080818823ECF79091B900987F81E09831D3
:0601820009F080E0089581
:100188008093BB00ECEBF0E0808180688083808105
:100198008823ECF79091B900987F81E0983209F0B4
:0401A80080E0089556
:0E01AC00EC0107D005D0CE0105D0CE0104D065
:0201BA0022CF52
:0201BC000895A4
:0201BE000895A2
:0201C0000895A0
:0201C20040DF1C
:00000001FF
