:1000000019C047C046C045C044C043C042C041C0FB
:1000100040C03FC03EC03DC03CC03BC03AC039C0FC
:1000200038C037C036C035C034C033C032C031C02C
:1000300030C02FC011241FBECFEFD2E0DEBFCDBF36
:10004000E4E3F0E040E017C0B591A591359125912A
:10005000059107FD0CC095918591EF01F92FE82FCF
:1000600005900D92A217B307D9F7FE0104C01D92A7
:10007000A217B307E1F7E433F40731F70BD002C05E
:04008000F894FFCF22
:0E008400EC0108D006D0CE0106D0CE0105D08A
:02009200B6CFE7
:02009400FFCF9C
:020096000895CB
:020098000895C9
:02009A000895C7
:02009C00F1DF92
:02000004008278
:03000000E2DFFF3D
:02000004008377
:01000000FF00
:00000001FF
