:1000000019C03BC03AC039C038C037C036C035C04F
:1000100034C033C032C031C030C02FC02EC02DC05C
:100020002CC02BC02AC029C028C027C026C025C08C
:1000300024C023C011241FBECFEFD2E0DEBFCDBF4E
:0800400003D014C0F894FFCFB7
:1000480014BC85B5826085BD85B5846085BD8AEFA1
:1000580086BD8FEF84B9A89B02C016BCA89A86B546
:0400680085B9F9CF8E
:0E006C00EC0107D005D0CE0105D0CE0104D0A6
:02007A00C2CFF3
:02007C000895E5
:02007E000895E3
:020080000895E1
:02008200E0DFBD
:00000001FF
