:1000000019C061C060C05FC05EC05DC05CC05BC045
:100010005AC059C058C057C056C055C054C053C02C
:1000200052C051C050C04FC04EC04DC04CC04BC05C
:100030004AC049C011241FBECFEFD2E0DEBFCDBF02
:0800400003D03AC0F894FFCF91
:10004800569A84B5826084BD84B5816084BD84B5C8
:10005800806884BD84E187BD85B5816085BD80E009
:1000680087BDEFE0F7E23197F1F700C000008F5F3E
:100078008A3FB1F7FFEF21EE84E0F1502040804045
:10008800E1F700C000008FEF87BDEFE0F7E231979E
:10009800F1F700C0000081508530B1F7FFEF21EE85
:1000A80084E0F15020408040E1F700C00000D7CF45
:0E00B800EC0107D005D0CE0105D0CE0104D05A
:0200C6009CCFCD
:0200C800089599
:0200CA00089597
:0200CC00089595
:0200CE00BADF97
:00000001FF
