:1000000019C04DC04CC04BC04AC049C048C047C0D1
:1000100046C045C044C043C042C041C040C03FC0CC
:100020003EC03DC03CC03BC03AC039C038C037C0FC
:1000300036C035C011241FBECFEFD2E0DEBFCDBF2A
:0800400003D020C0F894FFCFAB
:10004800229A2A9A8FEF87B90CD02A9883E01DD07C
:1000580080E01BD080E019D080E017D088B92A9AB8
:02006800FFCFC8
:10006A00239A259A24988CB580618CBD8CB58160C1
:0A007A008CBD8CB580648CBD089528
:0E008400EC010DD00BD0CE010BD0CE010AD076
:0C0092008EBD0DB407FEFDCF8EB50895A5
:02009E00B0CFE1
:0200A0000895C1
:0200A2000895BF
:0200A4000895BD
:0200A600CEDFAB
:00000001FF
