:1000000019C086C085C084C083C082C081C080C042
:100010007FC07EC07DC07CC07BC07AC079C078C004
:1000200077C076C075C074C073C072C071C070C034
:100030006FC06EC011241FBECFEFD2E0DEBFCDBFB8
:0800400047D05FC0F894FFCF28
:100048009C0140E050E060E271EA87E090E01AD05D
:10005800215031093093C5002093C400E1ECF0E051
:10006800808180618083808188608083E2ECF0E019
:1000780080818260808380818460808380818064C5
:0400880080830895D4
:10008C00A1E21A2EAA1BBB1BFD010DC0AA1FBB1F90
:10009C00EE1FFF1FA217B307E407F50720F0A21B02
:1000AC00B30BE40BF50B661F771F881F991F1A946F
:1000BC0069F760957095809590959B01AC01BD0199
:0400CC00CF010895C3
:1000D000529A549A5A9A80EB94E0B6DF8AEA09D091
:1000E0005A988FEC97E00197F1F700C000005A9AF8
:0200F000FFCF40
:1000F200E0ECF0E0908195FFFDCF8093C60008957B
:0E010200EC0107D005D0CE0105D0CE0104D00F
:0201100077CFA7
:0201120008954E
:0201140008954C
:0201160008954A
:0201180095DF71
:00000001FF
