:1000000019C07BC07AC079C078C077C076C075C08F
:1000100074C073C072C071C070C06FC06EC06DC05C
:100020006CC06BC06AC069C068C067C066C065C08C
:1000300064C063C011241FBECFEFD2E0DEBFCDBFCE
:0800400003D054C0F894FFCF77
:10004800219A8FEF9FEF90938700809386008FEF20
:100058009FE69093890080938800E0E8F0E0808133
:1000680080688083808182608083E1E8F0E080811D
:1000780088608083808180618083808181608083C3
:10008800E8E8F0E080E090E091838083AFE3BFE1AF
:100098001197F1F700C0000049968431BFEF9B0724
:1000A80099F72FEF87E893E1215080409040E1F7DE
:1000B80000C0000080EF9FEF91838083AFE3BFE132
:1000C8001197F1F700C00000499786309105A0F715
:1000D800BFEF27E883E1B15020408040E1F700C03E
:0400E8000000D0CF75
:0E00EC00EC0107D005D0CE0105D0CE0104D026
:0200FA0082CFB3
:0200FC00089565
:0200FE00089563
:02010000089560
:02010200A0DF7C
:00000001FF
