:1000000019C0EEC0EDC0ECC0EBC0EAC0E9C0E8C06A
:10001000E7C0E6C0E5C0E4C0E3C0E2C0E1C0E0C0C4
:10002000DFC0DEC0DDC0DCC0DBC0DAC0D9C0D8C0F4
:10003000D7C0D6C011241FBECFEFD2E0DEBFCDBFE8
:08004000B5D0C7C0F894FFCF52
:100048008F929F92AF92BF92EF92FF921F93CF939E
:10005800DF93CDB7DEB72A970FB6F894DEBF0FBE91
:10006800CDBF611571058105910579F111E00F2E5C
:10007800FAE08F2E912CA12CB12CF02D01C0122F5B
:10008800EE24E394F12CEC0EFD1EE10EF11CA5010B
:10009800940166D0F7016083622F732F842F952F08
:1000A80021E0210F611571058105910541F71123A3
:1000B80071F0E1E0F0E0EC0FFD1FE10FF11D808130
:1000C800805D7BD01150A9F702C080E376D02A96D4
:1000D8000FB6F894DEBF0FBECDBFDF91CF911F9151
:0E00E800FF90EF90BF90AF909F908F90089583
:1000F6000F931F938B019C01442399F0E0ECF0E0F1
:1001060080818260808360E874E88EE190E0A901D6
:10011600980127D0215031093093C5002093C4009F
:100126000DC060E472E48FE090E0A901980119D057
:10013600215031093093C5002093C400E1ECF0E072
:10014600808180618083808188608083E2ECF0E03A
:100156008081826080838081846080831F910F917B
:020166000895FA
:10016800A1E21A2EAA1BBB1BFD010DC0AA1FBB1FB3
:10017800EE1FFF1FA217B307E407F50720F0A21B25
:10018800B30BE40BF50B661F771F881F991F1A9492
:1001980069F760957095809590959B01AC01BD01BC
:0401A800CF010895E6
:1001AC0041E060E07BE480E090E09FDF60E070E0A5
:0601BC00CB0144DFFFCF80
:1001C200E0ECF0E0908195FFFDCF8093C6000895AA
:0E01D200EC0107D005D0CE0105D0CE0104D03F
:0201E0000FCF3F
:0201E20008957E
:0201E40008957C
:0201E60008957A
:0201E8002DDF09
:00000001FF
