:1000000019C06BC06AC069C068C067C066C065C0FF
:1000100064C063C062C061C060C05FC05EC05DC0DC
:100020005CC05BC05AC059C058C057C056C055C00C
:1000300054C053C011241FBECFEFD2E0DEBFCDBFEE
:0800400025D044C0F894FFCF65
:100048009C01A4ECB0E011961C921E92549A509810
:10005800E2ECF0E0808180688083908190649083F6
:1000680090819B7F908390819D7F9083E1ECF0E06D
:1000780090819061908390819860908311963C93D1
:040088002E93089516
:10008C008FEF84B9529A5A9A80E090E0D7DF5A9851
:10009C0083E009D080E007D080E005D080E003D079
:0600AC0085B95A9AFFCF4E
:1000B200E0ECF0E09081906490838093C6008081B0
:0A00C2008823ECF78091C600089532
:0E00CC00EC0107D005D0CE0105D0CE0104D046
:0200DA0092CFC3
:0200DC00089585
:0200DE00089583
:0200E000089581
:0200E200B0DF8D
:00000001FF
