:1000000019C05EC05DC05CC05BC05AC059C058C05A
:1000100057C056C055C054C053C052C051C050C044
:100020004FC04EC04DC04CC04BC04AC049C048C074
:1000300047C046C011241FBECFEFD2E0DEBFCDBF08
:0800400003D037C0F894FFCF94
:10004800569A84B5816084BD84B5806884BD84E691
:1000580087BD85B5816085BD80E087BDEFE1FEE4A1
:100068003197F1F700C000008F5F8A3FB1F7FFEFCB
:1000780023EC89E0F15020408040E1F700C0000007
:100088008FEF87BDEFE1FEE43197F1F700C0000084
:1000980081508530B1F7FFEF23EC89E0F150204023
:0A00A8008040E1F700C00000D7CF50
:0E00B200EC0107D005D0CE0105D0CE0104D060
:0200C0009FCFD0
:0200C20008959F
:0200C40008959D
:0200C60008959B
:0200C800BDDF9A
:00000001FF
