:1000000019C044C043C042C041C040C03FC03EC010
:100010003DC03CC03BC03AC039C038C037C036C014
:1000200035C034C033C032C031C030C02FC02EC044
:100030002DC02CC011241FBECFEFD2E0DEBFCDBF3C
:0800400003D01DC0F894FFCFAE
:100048001092B000E1EBF0E08081826080838081D3
:10005800846080838081816080831092B200259AB9
:10006800E2EBF0E090E2B89BFECF108285B18927E1
:0600780085B9B89AF8CF2B
:0E007E00EC0107D005D0CE0105D0CE0104D094
:02008C00B9CFEA
:02008E000895D3
:020090000895D1
:020092000895CF
:02009400D7DFB4
:00000001FF
