:1000000019C047C046C045C044C043C042C041C0FB
:1000100040C03FC03EC03DC03CC03BC03AC039C0FC
:1000200038C037C036C035C034C033C032C031C02C
:1000300030C02FC011241FBECFEFD2E0DEBFCDBF36
:0800400003D020C0F894FFCFAB
:1000480010928000E1E8F0E0808182608083808106
:10005800846080838AEF9FEF90938500809384006B
:100068008FEF84B98AB11AB8E4E8F0E0B09B03C016
:0C00780011821082B09A808185B9F8CF07
:0E008400EC0107D005D0CE0105D0CE0104D08E
:02009200B6CFE7
:020094000895CD
:020096000895CB
:020098000895C9
:02009A00D4DFB1
:00000001FF
